{
  "_format": "hh3-artifact-1",
  "contractName": "TicketNFT",
  "sourceName": "contracts/TicketNFT.sol",
  "abi": [
    {
      "inputs": [
        {
          "internalType": "address",
          "name": "bookingRegistryAddress",
          "type": "address"
        },
        {
          "internalType": "address",
          "name": "skyTokenAddress",
          "type": "address"
        },
        {
          "internalType": "address",
          "name": "admin",
          "type": "address"
        }
      ],
      "stateMutability": "nonpayable",
      "type": "constructor"
    },
    {
      "inputs": [],
      "name": "AccessControlBadConfirmation",
      "type": "error"
    },
    {
      "inputs": [
        {
          "internalType": "address",
          "name": "account",
          "type": "address"
        },
        {
          "internalType": "bytes32",
          "name": "neededRole",
          "type": "bytes32"
        }
      ],
      "name": "AccessControlUnauthorizedAccount",
      "type": "error"
    },
    {
      "inputs": [
        {
          "internalType": "address",
          "name": "sender",
          "type": "address"
        },
        {
          "internalType": "uint256",
          "name": "tokenId",
          "type": "uint256"
        },
        {
          "internalType": "address",
          "name": "owner",
          "type": "address"
        }
      ],
      "name": "ERC721IncorrectOwner",
      "type": "error"
    },
    {
      "inputs": [
        {
          "internalType": "address",
          "name": "operator",
          "type": "address"
        },
        {
          "internalType": "uint256",
          "name": "tokenId",
          "type": "uint256"
        }
      ],
      "name": "ERC721InsufficientApproval",
      "type": "error"
    },
    {
      "inputs": [
        {
          "internalType": "address",
          "name": "approver",
          "type": "address"
        }
      ],
      "name": "ERC721InvalidApprover",
      "type": "error"
    },
    {
      "inputs": [
        {
          "internalType": "address",
          "name": "operator",
          "type": "address"
        }
      ],
      "name": "ERC721InvalidOperator",
      "type": "error"
    },
    {
      "inputs": [
        {
          "internalType": "address",
          "name": "owner",
          "type": "address"
        }
      ],
      "name": "ERC721InvalidOwner",
      "type": "error"
    },
    {
      "inputs": [
        {
          "internalType": "address",
          "name": "receiver",
          "type": "address"
        }
      ],
      "name": "ERC721InvalidReceiver",
      "type": "error"
    },
    {
      "inputs": [
        {
          "internalType": "address",
          "name": "sender",
          "type": "address"
        }
      ],
      "name": "ERC721InvalidSender",
      "type": "error"
    },
    {
      "inputs": [
        {
          "internalType": "uint256",
          "name": "tokenId",
          "type": "uint256"
        }
      ],
      "name": "ERC721NonexistentToken",
      "type": "error"
    },
    {
      "inputs": [
        {
          "internalType": "address",
          "name": "owner",
          "type": "address"
        }
      ],
      "name": "OwnableInvalidOwner",
      "type": "error"
    },
    {
      "inputs": [
        {
          "internalType": "address",
          "name": "account",
          "type": "address"
        }
      ],
      "name": "OwnableUnauthorizedAccount",
      "type": "error"
    },
    {
      "anonymous": false,
      "inputs": [
        {
          "indexed": true,
          "internalType": "address",
          "name": "owner",
          "type": "address"
        },
        {
          "indexed": true,
          "internalType": "address",
          "name": "approved",
          "type": "address"
        },
        {
          "indexed": true,
          "internalType": "uint256",
          "name": "tokenId",
          "type": "uint256"
        }
      ],
      "name": "Approval",
      "type": "event"
    },
    {
      "anonymous": false,
      "inputs": [
        {
          "indexed": true,
          "internalType": "address",
          "name": "owner",
          "type": "address"
        },
        {
          "indexed": true,
          "internalType": "address",
          "name": "operator",
          "type": "address"
        },
        {
          "indexed": false,
          "internalType": "bool",
          "name": "approved",
          "type": "bool"
        }
      ],
      "name": "ApprovalForAll",
      "type": "event"
    },
    {
      "anonymous": false,
      "inputs": [
        {
          "indexed": false,
          "internalType": "uint256",
          "name": "_fromTokenId",
          "type": "uint256"
        },
        {
          "indexed": false,
          "internalType": "uint256",
          "name": "_toTokenId",
          "type": "uint256"
        }
      ],
      "name": "BatchMetadataUpdate",
      "type": "event"
    },
    {
      "anonymous": false,
      "inputs": [
        {
          "indexed": false,
          "internalType": "uint256",
          "name": "_tokenId",
          "type": "uint256"
        }
      ],
      "name": "MetadataUpdate",
      "type": "event"
    },
    {
      "anonymous": false,
      "inputs": [
        {
          "indexed": true,
          "internalType": "address",
          "name": "previousOwner",
          "type": "address"
        },
        {
          "indexed": true,
          "internalType": "address",
          "name": "newOwner",
          "type": "address"
        }
      ],
      "name": "OwnershipTransferred",
      "type": "event"
    },
    {
      "anonymous": false,
      "inputs": [
        {
          "indexed": true,
          "internalType": "bytes32",
          "name": "role",
          "type": "bytes32"
        },
        {
          "indexed": true,
          "internalType": "bytes32",
          "name": "previousAdminRole",
          "type": "bytes32"
        },
        {
          "indexed": true,
          "internalType": "bytes32",
          "name": "newAdminRole",
          "type": "bytes32"
        }
      ],
      "name": "RoleAdminChanged",
      "type": "event"
    },
    {
      "anonymous": false,
      "inputs": [
        {
          "indexed": true,
          "internalType": "bytes32",
          "name": "role",
          "type": "bytes32"
        },
        {
          "indexed": true,
          "internalType": "address",
          "name": "account",
          "type": "address"
        },
        {
          "indexed": true,
          "internalType": "address",
          "name": "sender",
          "type": "address"
        }
      ],
      "name": "RoleGranted",
      "type": "event"
    },
    {
      "anonymous": false,
      "inputs": [
        {
          "indexed": true,
          "internalType": "bytes32",
          "name": "role",
          "type": "bytes32"
        },
        {
          "indexed": true,
          "internalType": "address",
          "name": "account",
          "type": "address"
        },
        {
          "indexed": true,
          "internalType": "address",
          "name": "sender",
          "type": "address"
        }
      ],
      "name": "RoleRevoked",
      "type": "event"
    },
    {
      "anonymous": false,
      "inputs": [
        {
          "indexed": true,
          "internalType": "address",
          "name": "from",
          "type": "address"
        },
        {
          "indexed": true,
          "internalType": "uint256",
          "name": "tokenId",
          "type": "uint256"
        },
        {
          "indexed": false,
          "internalType": "string",
          "name": "bookingCode",
          "type": "string"
        }
      ],
      "name": "TicketBurned",
      "type": "event"
    },
    {
      "anonymous": false,
      "inputs": [
        {
          "indexed": true,
          "internalType": "address",
          "name": "to",
          "type": "address"
        },
        {
          "indexed": true,
          "internalType": "uint256",
          "name": "tokenId",
          "type": "uint256"
        },
        {
          "indexed": false,
          "internalType": "string",
          "name": "bookingCode",
          "type": "string"
        },
        {
          "indexed": false,
          "internalType": "string",
          "name": "tokenURI",
          "type": "string"
        }
      ],
      "name": "TicketMinted",
      "type": "event"
    },
    {
      "anonymous": false,
      "inputs": [
        {
          "indexed": true,
          "internalType": "address",
          "name": "from",
          "type": "address"
        },
        {
          "indexed": true,
          "internalType": "address",
          "name": "to",
          "type": "address"
        },
        {
          "indexed": true,
          "internalType": "uint256",
          "name": "tokenId",
          "type": "uint256"
        }
      ],
      "name": "Transfer",
      "type": "event"
    },
    {
      "inputs": [],
      "name": "DEFAULT_ADMIN_ROLE",
      "outputs": [
        {
          "internalType": "bytes32",
          "name": "",
          "type": "bytes32"
        }
      ],
      "stateMutability": "view",
      "type": "function"
    },
    {
      "inputs": [],
      "name": "MINTER_ROLE",
      "outputs": [
        {
          "internalType": "bytes32",
          "name": "",
          "type": "bytes32"
        }
      ],
      "stateMutability": "view",
      "type": "function"
    },
    {
      "inputs": [
        {
          "internalType": "address",
          "name": "to",
          "type": "address"
        },
        {
          "internalType": "uint256",
          "name": "tokenId",
          "type": "uint256"
        }
      ],
      "name": "approve",
      "outputs": [],
      "stateMutability": "nonpayable",
      "type": "function"
    },
    {
      "inputs": [
        {
          "internalType": "address",
          "name": "owner",
          "type": "address"
        }
      ],
      "name": "balanceOf",
      "outputs": [
        {
          "internalType": "uint256",
          "name": "",
          "type": "uint256"
        }
      ],
      "stateMutability": "view",
      "type": "function"
    },
    {
      "inputs": [
        {
          "internalType": "uint256",
          "name": "tokenId",
          "type": "uint256"
        }
      ],
      "name": "burnTicket",
      "outputs": [],
      "stateMutability": "nonpayable",
      "type": "function"
    },
    {
      "inputs": [
        {
          "internalType": "uint256",
          "name": "tokenId",
          "type": "uint256"
        }
      ],
      "name": "getApproved",
      "outputs": [
        {
          "internalType": "address",
          "name": "",
          "type": "address"
        }
      ],
      "stateMutability": "view",
      "type": "function"
    },
    {
      "inputs": [
        {
          "internalType": "uint256",
          "name": "tokenId",
          "type": "uint256"
        }
      ],
      "name": "getBookingCode",
      "outputs": [
        {
          "internalType": "string",
          "name": "",
          "type": "string"
        }
      ],
      "stateMutability": "view",
      "type": "function"
    },
    {
      "inputs": [
        {
          "internalType": "bytes32",
          "name": "role",
          "type": "bytes32"
        }
      ],
      "name": "getRoleAdmin",
      "outputs": [
        {
          "internalType": "bytes32",
          "name": "",
          "type": "bytes32"
        }
      ],
      "stateMutability": "view",
      "type": "function"
    },
    {
      "inputs": [
        {
          "internalType": "string",
          "name": "bookingCode",
          "type": "string"
        }
      ],
      "name": "getTokenIdByBookingCode",
      "outputs": [
        {
          "internalType": "uint256",
          "name": "",
          "type": "uint256"
        }
      ],
      "stateMutability": "view",
      "type": "function"
    },
    {
      "inputs": [
        {
          "internalType": "address",
          "name": "user",
          "type": "address"
        }
      ],
      "name": "getUserTicketsCount",
      "outputs": [
        {
          "internalType": "uint256",
          "name": "",
          "type": "uint256"
        }
      ],
      "stateMutability": "view",
      "type": "function"
    },
    {
      "inputs": [
        {
          "internalType": "bytes32",
          "name": "role",
          "type": "bytes32"
        },
        {
          "internalType": "address",
          "name": "account",
          "type": "address"
        }
      ],
      "name": "grantRole",
      "outputs": [],
      "stateMutability": "nonpayable",
      "type": "function"
    },
    {
      "inputs": [
        {
          "internalType": "bytes32",
          "name": "role",
          "type": "bytes32"
        },
        {
          "internalType": "address",
          "name": "account",
          "type": "address"
        }
      ],
      "name": "hasRole",
      "outputs": [
        {
          "internalType": "bool",
          "name": "",
          "type": "bool"
        }
      ],
      "stateMutability": "view",
      "type": "function"
    },
    {
      "inputs": [
        {
          "internalType": "address",
          "name": "owner",
          "type": "address"
        },
        {
          "internalType": "address",
          "name": "operator",
          "type": "address"
        }
      ],
      "name": "isApprovedForAll",
      "outputs": [
        {
          "internalType": "bool",
          "name": "",
          "type": "bool"
        }
      ],
      "stateMutability": "view",
      "type": "function"
    },
    {
      "inputs": [
        {
          "internalType": "address",
          "name": "to",
          "type": "address"
        },
        {
          "internalType": "string",
          "name": "bookingCode",
          "type": "string"
        },
        {
          "internalType": "string",
          "name": "tokenURI_",
          "type": "string"
        }
      ],
      "name": "mintTicket",
      "outputs": [
        {
          "internalType": "uint256",
          "name": "tokenId",
          "type": "uint256"
        }
      ],
      "stateMutability": "nonpayable",
      "type": "function"
    },
    {
      "inputs": [],
      "name": "name",
      "outputs": [
        {
          "internalType": "string",
          "name": "",
          "type": "string"
        }
      ],
      "stateMutability": "view",
      "type": "function"
    },
    {
      "inputs": [],
      "name": "owner",
      "outputs": [
        {
          "internalType": "address",
          "name": "",
          "type": "address"
        }
      ],
      "stateMutability": "view",
      "type": "function"
    },
    {
      "inputs": [
        {
          "internalType": "uint256",
          "name": "tokenId",
          "type": "uint256"
        }
      ],
      "name": "ownerOf",
      "outputs": [
        {
          "internalType": "address",
          "name": "",
          "type": "address"
        }
      ],
      "stateMutability": "view",
      "type": "function"
    },
    {
      "inputs": [],
      "name": "registry",
      "outputs": [
        {
          "internalType": "contract IBookingRegistry",
          "name": "",
          "type": "address"
        }
      ],
      "stateMutability": "view",
      "type": "function"
    },
    {
      "inputs": [],
      "name": "renounceOwnership",
      "outputs": [],
      "stateMutability": "nonpayable",
      "type": "function"
    },
    {
      "inputs": [
        {
          "internalType": "bytes32",
          "name": "role",
          "type": "bytes32"
        },
        {
          "internalType": "address",
          "name": "callerConfirmation",
          "type": "address"
        }
      ],
      "name": "renounceRole",
      "outputs": [],
      "stateMutability": "nonpayable",
      "type": "function"
    },
    {
      "inputs": [
        {
          "internalType": "bytes32",
          "name": "role",
          "type": "bytes32"
        },
        {
          "internalType": "address",
          "name": "account",
          "type": "address"
        }
      ],
      "name": "revokeRole",
      "outputs": [],
      "stateMutability": "nonpayable",
      "type": "function"
    },
    {
      "inputs": [
        {
          "internalType": "address",
          "name": "from",
          "type": "address"
        },
        {
          "internalType": "address",
          "name": "to",
          "type": "address"
        },
        {
          "internalType": "uint256",
          "name": "tokenId",
          "type": "uint256"
        }
      ],
      "name": "safeTransferFrom",
      "outputs": [],
      "stateMutability": "nonpayable",
      "type": "function"
    },
    {
      "inputs": [
        {
          "internalType": "address",
          "name": "from",
          "type": "address"
        },
        {
          "internalType": "address",
          "name": "to",
          "type": "address"
        },
        {
          "internalType": "uint256",
          "name": "tokenId",
          "type": "uint256"
        },
        {
          "internalType": "bytes",
          "name": "data",
          "type": "bytes"
        }
      ],
      "name": "safeTransferFrom",
      "outputs": [],
      "stateMutability": "nonpayable",
      "type": "function"
    },
    {
      "inputs": [
        {
          "internalType": "address",
          "name": "operator",
          "type": "address"
        },
        {
          "internalType": "bool",
          "name": "approved",
          "type": "bool"
        }
      ],
      "name": "setApprovalForAll",
      "outputs": [],
      "stateMutability": "nonpayable",
      "type": "function"
    },
    {
      "inputs": [
        {
          "internalType": "address",
          "name": "bookingRegistryAddress",
          "type": "address"
        }
      ],
      "name": "setRegistry",
      "outputs": [],
      "stateMutability": "nonpayable",
      "type": "function"
    },
    {
      "inputs": [
        {
          "internalType": "address",
          "name": "skyTokenAddress",
          "type": "address"
        }
      ],
      "name": "setSkyToken",
      "outputs": [],
      "stateMutability": "nonpayable",
      "type": "function"
    },
    {
      "inputs": [],
      "name": "skyToken",
      "outputs": [
        {
          "internalType": "contract ISkyToken",
          "name": "",
          "type": "address"
        }
      ],
      "stateMutability": "view",
      "type": "function"
    },
    {
      "inputs": [
        {
          "internalType": "bytes4",
          "name": "interfaceId",
          "type": "bytes4"
        }
      ],
      "name": "supportsInterface",
      "outputs": [
        {
          "internalType": "bool",
          "name": "",
          "type": "bool"
        }
      ],
      "stateMutability": "view",
      "type": "function"
    },
    {
      "inputs": [],
      "name": "symbol",
      "outputs": [
        {
          "internalType": "string",
          "name": "",
          "type": "string"
        }
      ],
      "stateMutability": "view",
      "type": "function"
    },
    {
      "inputs": [
        {
          "internalType": "address",
          "name": "",
          "type": "address"
        }
      ],
      "name": "ticketsCount",
      "outputs": [
        {
          "internalType": "uint256",
          "name": "",
          "type": "uint256"
        }
      ],
      "stateMutability": "view",
      "type": "function"
    },
    {
      "inputs": [
        {
          "internalType": "uint256",
          "name": "tokenId",
          "type": "uint256"
        }
      ],
      "name": "tokenURI",
      "outputs": [
        {
          "internalType": "string",
          "name": "",
          "type": "string"
        }
      ],
      "stateMutability": "view",
      "type": "function"
    },
    {
      "inputs": [
        {
          "internalType": "address",
          "name": "from",
          "type": "address"
        },
        {
          "internalType": "address",
          "name": "to",
          "type": "address"
        },
        {
          "internalType": "uint256",
          "name": "tokenId",
          "type": "uint256"
        }
      ],
      "name": "transferFrom",
      "outputs": [],
      "stateMutability": "nonpayable",
      "type": "function"
    },
    {
      "inputs": [
        {
          "internalType": "address",
          "name": "newOwner",
          "type": "address"
        }
      ],
      "name": "transferOwnership",
      "outputs": [],
      "stateMutability": "nonpayable",
      "type": "function"
    }
  ],
  "bytecode": "0x60806040526001600b5534801562000015575f80fd5b50604051620048e2380380620048e283398181016040528101906200003b9190620004b2565b806040518060400160405280600e81526020017f536b79506c616e205469636b65740000000000000000000000000000000000008152506040518060400160405280600981526020017f534b595449434b45540000000000000000000000000000000000000000000000815250815f9081620000b891906200076f565b508060019081620000ca91906200076f565b5050505f73ffffffffffffffffffffffffffffffffffffffff168173ffffffffffffffffffffffffffffffffffffffff160362000140575f6040517f1e4fbdf700000000000000000000000000000000000000000000000000000000815260040162000137919062000864565b60405180910390fd5b62000151816200022360201b60201c565b50620001665f801b82620002e660201b60201c565b50620001997f9f2df0fed2c77648de5860a4cc508cd0818c85b8b8a1ab4ceeef8d981c8956a682620002e660201b60201c565b508260095f6101000a81548173ffffffffffffffffffffffffffffffffffffffff021916908373ffffffffffffffffffffffffffffffffffffffff16021790555081600a5f6101000a81548173ffffffffffffffffffffffffffffffffffffffff021916908373ffffffffffffffffffffffffffffffffffffffff1602179055505050506200087f565b5f60075f9054906101000a900473ffffffffffffffffffffffffffffffffffffffff1690508160075f6101000a81548173ffffffffffffffffffffffffffffffffffffffff021916908373ffffffffffffffffffffffffffffffffffffffff1602179055508173ffffffffffffffffffffffffffffffffffffffff168173ffffffffffffffffffffffffffffffffffffffff167f8be0079c531659141344cd1fd0a4f28419497f9722a3daafe3b4186f6b6457e060405160405180910390a35050565b5f620002f98383620003e260201b60201c565b620003d857600160085f8581526020019081526020015f205f015f8473ffffffffffffffffffffffffffffffffffffffff1673ffffffffffffffffffffffffffffffffffffffff1681526020019081526020015f205f6101000a81548160ff021916908315150217905550620003746200044660201b60201c565b73ffffffffffffffffffffffffffffffffffffffff168273ffffffffffffffffffffffffffffffffffffffff16847f2f8788117e7eff1d82e926ec794901d17c78024a50270940304540a733656f0d60405160405180910390a460019050620003dc565b5f90505b92915050565b5f60085f8481526020019081526020015f205f015f8373ffffffffffffffffffffffffffffffffffffffff1673ffffffffffffffffffffffffffffffffffffffff1681526020019081526020015f205f9054906101000a900460ff16905092915050565b5f33905090565b5f80fd5b5f73ffffffffffffffffffffffffffffffffffffffff82169050919050565b5f6200047c8262000451565b9050919050565b6200048e8162000470565b811462000499575f80fd5b50565b5f81519050620004ac8162000483565b92915050565b5f805f60608486031215620004cc57620004cb6200044d565b5b5f620004db868287016200049c565b9350506020620004ee868287016200049c565b925050604062000501868287016200049c565b9150509250925092565b5f81519050919050565b7f4e487b71000000000000000000000000000000000000000000000000000000005f52604160045260245ffd5b7f4e487b71000000000000000000000000000000000000000000000000000000005f52602260045260245ffd5b5f60028204905060018216806200058757607f821691505b6020821081036200059d576200059c62000542565b5b50919050565b5f819050815f5260205f209050919050565b5f6020601f8301049050919050565b5f82821b905092915050565b5f60088302620006017fffffffffffffffffffffffffffffffffffffffffffffffffffffffffffffffff82620005c4565b6200060d8683620005c4565b95508019841693508086168417925050509392505050565b5f819050919050565b5f819050919050565b5f62000657620006516200064b8462000625565b6200062e565b62000625565b9050919050565b5f819050919050565b620006728362000637565b6200068a62000681826200065e565b848454620005d0565b825550505050565b5f90565b620006a062000692565b620006ad81848462000667565b505050565b5b81811015620006d457620006c85f8262000696565b600181019050620006b3565b5050565b601f8211156200072357620006ed81620005a3565b620006f884620005b5565b8101602085101562000708578190505b620007206200071785620005b5565b830182620006b2565b50505b505050565b5f82821c905092915050565b5f620007455f198460080262000728565b1980831691505092915050565b5f6200075f838362000734565b9150826002028217905092915050565b6200077a826200050b565b67ffffffffffffffff81111562000796576200079562000515565b5b620007a282546200056f565b620007af828285620006d8565b5f60209050601f831160018114620007e5575f8415620007d0578287015190505b620007dc858262000752565b8655506200084b565b601f198416620007f586620005a3565b5f5b828110156200081e57848901518255600182019150602085019450602081019050620007f7565b868310156200083e57848901516200083a601f89168262000734565b8355505b6001600288020188555050505b505050505050565b6200085e8162000470565b82525050565b5f602082019050620008795f83018462000853565b92915050565b614055806200088d5f395ff3fe608060405234801561000f575f80fd5b50600436106101f9575f3560e01c80637b10399911610118578063a91ee0dc116100ab578063d53913931161007a578063d5391393146105e3578063d547741f14610601578063da14b8e61461061d578063e985e9c51461064d578063f2fde38b1461067d576101f9565b8063a91ee0dc1461054b578063b28fe82d14610567578063b88d4fde14610597578063c87b56dd146105b3576101f9565b806396f9de8b116100e757806396f9de8b146104c5578063a217fddf146104f5578063a22cb46514610513578063a476b73d1461052f576101f9565b80637b1039991461043b5780638da5cb5b1461045957806391d148541461047757806395d89b41146104a7576101f9565b80632f2ff15d1161019057806359a751b21161015f57806359a751b2146103b35780636352211e146103d157806370a0823114610401578063715018a614610431576101f9565b80632f2ff15d1461034357806336568abe1461035f57806342842e0e1461037b57806348f15f1c14610397576101f9565b80631d6eef31116101cc5780631d6eef311461029757806323b872dd146102c7578063248a9ca3146102e35780632988559014610313576101f9565b806301ffc9a7146101fd57806306fdde031461022d578063081812fc1461024b578063095ea7b31461027b575b5f80fd5b61021760048036038101906102129190612cc2565b610699565b6040516102249190612d07565b60405180910390f35b6102356106aa565b6040516102429190612daa565b60405180910390f35b61026560048036038101906102609190612dfd565b610739565b6040516102729190612e67565b60405180910390f35b61029560048036038101906102909190612eaa565b610754565b005b6102b160048036038101906102ac9190612f49565b61076a565b6040516102be9190612fe9565b60405180910390f35b6102e160048036038101906102dc9190613002565b610c9a565b005b6102fd60048036038101906102f89190613085565b610d99565b60405161030a91906130bf565b60405180910390f35b61032d600480360381019061032891906130d8565b610db6565b60405161033a9190612fe9565b60405180910390f35b61035d60048036038101906103589190613103565b610dcb565b005b61037960048036038101906103749190613103565b610ded565b005b61039560048036038101906103909190613002565b610e68565b005b6103b160048036038101906103ac91906130d8565b610e87565b005b6103bb610ed7565b6040516103c8919061319c565b60405180910390f35b6103eb60048036038101906103e69190612dfd565b610efc565b6040516103f89190612e67565b60405180910390f35b61041b600480360381019061041691906130d8565b610f0d565b6040516104289190612fe9565b60405180910390f35b610439610fc3565b005b610443610fd6565b60405161045091906131d5565b60405180910390f35b610461610ffb565b60405161046e9190612e67565b60405180910390f35b610491600480360381019061048c9190613103565b611023565b60405161049e9190612d07565b60405180910390f35b6104af611087565b6040516104bc9190612daa565b60405180910390f35b6104df60048036038101906104da91906131ee565b611117565b6040516104ec9190612fe9565b60405180910390f35b6104fd61115f565b60405161050a91906130bf565b60405180910390f35b61052d60048036038101906105289190613263565b611165565b005b61054960048036038101906105449190612dfd565b61117b565b005b610565600480360381019061056091906130d8565b61138d565b005b610581600480360381019061057c9190612dfd565b6113dd565b60405161058e9190612daa565b60405180910390f35b6105b160048036038101906105ac91906133c9565b6114f4565b005b6105cd60048036038101906105c89190612dfd565b611519565b6040516105da9190612daa565b60405180910390f35b6105eb611624565b6040516105f891906130bf565b60405180910390f35b61061b60048036038101906106169190613103565b611648565b005b610637600480360381019061063291906130d8565b61166a565b6040516106449190612fe9565b60405180910390f35b61066760048036038101906106629190613449565b6116b0565b6040516106749190612d07565b60405180910390f35b610697600480360381019061069291906130d8565b61173e565b005b5f6106a3826117c2565b9050919050565b60605f80546106b8906134b4565b80601f01602080910402602001604051908101604052809291908181526020018280546106e4906134b4565b801561072f5780601f106107065761010080835404028352916020019161072f565b820191905f5260205f20905b81548152906001019060200180831161071257829003601f168201915b5050505050905090565b5f6107438261183b565b5061074d826118c1565b9050919050565b61076682826107616118fa565b611901565b5050565b5f7f9f2df0fed2c77648de5860a4cc508cd0818c85b8b8a1ab4ceeef8d981c8956a661079581611913565b5f73ffffffffffffffffffffffffffffffffffffffff168773ffffffffffffffffffffffffffffffffffffffff1603610803576040517f08c379a00000000000000000000000000000000000000000000000000000000081526004016107fa9061352e565b60405180910390fd5b5f8686905011610848576040517f08c379a000000000000000000000000000000000000000000000000000000000815260040161083f90613596565b60405180910390fd5b5f848490501161088d576040517f08c379a0000000000000000000000000000000000000000000000000000000008152600401610884906135fe565b60405180910390fd5b5f8060095f9054906101000a900473ffffffffffffffffffffffffffffffffffffffff1673ffffffffffffffffffffffffffffffffffffffff16639624493f89896040518363ffffffff1660e01b81526004016108eb929190613648565b608060405180830381865afa158015610906573d5f803e3d5ffd5b505050506040513d601f19601f8201168201806040525081019061092a91906136f2565b5050915091508873ffffffffffffffffffffffffffffffffffffffff168173ffffffffffffffffffffffffffffffffffffffff161461099e576040517f08c379a0000000000000000000000000000000000000000000000000000000008152600401610995906137a0565b60405180910390fd5b5f801b82036109e2576040517f08c379a00000000000000000000000000000000000000000000000000000000081526004016109d990613808565b60405180910390fd5b5f88886040516020016109f6929190613854565b6040516020818303038152906040528051906020012090505f600d5f8381526020019081526020015f205414610a61576040517f08c379a0000000000000000000000000000000000000000000000000000000008152600401610a58906138b6565b60405180910390fd5b600b549450600b5f815480929190610a7890613901565b91905055508888600c5f8881526020019081526020015f209182610a9d929190613ae6565b5084600d5f8381526020019081526020015f2081905550600e5f8b73ffffffffffffffffffffffffffffffffffffffff1673ffffffffffffffffffffffffffffffffffffffff1681526020019081526020015f205f815480929190610b0190613901565b9190505550610b108a86611927565b610b5d8588888080601f0160208091040260200160405190810160405280939291908181526020018383808284375f81840152601f19601f82011690508083019250505050505050611944565b5f73ffffffffffffffffffffffffffffffffffffffff16600a5f9054906101000a900473ffffffffffffffffffffffffffffffffffffffff1673ffffffffffffffffffffffffffffffffffffffff1614610c3857600a5f9054906101000a900473ffffffffffffffffffffffffffffffffffffffff1673ffffffffffffffffffffffffffffffffffffffff16634697f05d8b60016040518363ffffffff1660e01b8152600401610c0e929190613bb3565b5f604051808303815f87803b158015610c25575f80fd5b505af1925050508015610c36575060015b505b848a73ffffffffffffffffffffffffffffffffffffffff167f8738c548206f13bd5a7b1c94f43bc83ca922ca699225c5a887cede57cefa9ffc8b8b8b8b604051610c859493929190613bda565b60405180910390a35050505095945050505050565b5f73ffffffffffffffffffffffffffffffffffffffff168273ffffffffffffffffffffffffffffffffffffffff1603610d0a575f6040517f64a0ae92000000000000000000000000000000000000000000000000000000008152600401610d019190612e67565b60405180910390fd5b5f610d1d8383610d186118fa565b61199e565b90508373ffffffffffffffffffffffffffffffffffffffff168173ffffffffffffffffffffffffffffffffffffffff1614610d93578382826040517f64283d7b000000000000000000000000000000000000000000000000000000008152600401610d8a93929190613c13565b60405180910390fd5b50505050565b5f60085f8381526020019081526020015f20600101549050919050565b600e602052805f5260405f205f915090505481565b610dd482610d99565b610ddd81611913565b610de78383611a79565b50505050565b610df56118fa565b73ffffffffffffffffffffffffffffffffffffffff168173ffffffffffffffffffffffffffffffffffffffff1614610e59576040517f6697b23200000000000000000000000000000000000000000000000000000000815260040160405180910390fd5b610e638282611b63565b505050565b610e8283838360405180602001604052805f8152506114f4565b505050565b5f801b610e9381611913565b81600a5f6101000a81548173ffffffffffffffffffffffffffffffffffffffff021916908373ffffffffffffffffffffffffffffffffffffffff1602179055505050565b600a5f9054906101000a900473ffffffffffffffffffffffffffffffffffffffff1681565b5f610f068261183b565b9050919050565b5f8073ffffffffffffffffffffffffffffffffffffffff168273ffffffffffffffffffffffffffffffffffffffff1603610f7e575f6040517f89c62b64000000000000000000000000000000000000000000000000000000008152600401610f759190612e67565b60405180910390fd5b60035f8373ffffffffffffffffffffffffffffffffffffffff1673ffffffffffffffffffffffffffffffffffffffff1681526020019081526020015f20549050919050565b610fcb611c4d565b610fd45f611cd4565b565b60095f9054906101000a900473ffffffffffffffffffffffffffffffffffffffff1681565b5f60075f9054906101000a900473ffffffffffffffffffffffffffffffffffffffff16905090565b5f60085f8481526020019081526020015f205f015f8373ffffffffffffffffffffffffffffffffffffffff1673ffffffffffffffffffffffffffffffffffffffff1681526020019081526020015f205f9054906101000a900460ff16905092915050565b606060018054611096906134b4565b80601f01602080910402602001604051908101604052809291908181526020018280546110c2906134b4565b801561110d5780601f106110e45761010080835404028352916020019161110d565b820191905f5260205f20905b8154815290600101906020018083116110f057829003601f168201915b5050505050905090565b5f80838360405160200161112c929190613854565b604051602081830303815290604052805190602001209050600d5f8281526020019081526020015f205491505092915050565b5f801b81565b6111776111706118fa565b8383611d97565b5050565b3373ffffffffffffffffffffffffffffffffffffffff1661119b82610efc565b73ffffffffffffffffffffffffffffffffffffffff16146111f1576040517f08c379a00000000000000000000000000000000000000000000000000000000081526004016111e890613c92565b60405180910390fd5b5f600c5f8381526020019081526020015f20805461120e906134b4565b80601f016020809104026020016040519081016040528092919081815260200182805461123a906134b4565b80156112855780601f1061125c57610100808354040283529160200191611285565b820191905f5260205f20905b81548152906001019060200180831161126857829003601f168201915b505050505090505f61129683610efc565b90505f600e5f8373ffffffffffffffffffffffffffffffffffffffff1673ffffffffffffffffffffffffffffffffffffffff1681526020019081526020015f2054111561133057600e5f8273ffffffffffffffffffffffffffffffffffffffff1673ffffffffffffffffffffffffffffffffffffffff1681526020019081526020015f205f81548092919061132a90613cb0565b91905055505b61133983611f00565b828173ffffffffffffffffffffffffffffffffffffffff167fc1bedcdefa7f3a7f271fbaeabdd33df822ff55728ea29d26c495204db9b9e9c2846040516113809190612daa565b60405180910390a3505050565b5f801b61139981611913565b8160095f6101000a81548173ffffffffffffffffffffffffffffffffffffffff021916908373ffffffffffffffffffffffffffffffffffffffff1602179055505050565b60605f73ffffffffffffffffffffffffffffffffffffffff166113ff83611f82565b73ffffffffffffffffffffffffffffffffffffffff1603611455576040517f08c379a000000000000000000000000000000000000000000000000000000000815260040161144c90613d21565b60405180910390fd5b600c5f8381526020019081526020015f208054611471906134b4565b80601f016020809104026020016040519081016040528092919081815260200182805461149d906134b4565b80156114e85780601f106114bf576101008083540402835291602001916114e8565b820191905f5260205f20905b8154815290600101906020018083116114cb57829003601f168201915b50505050509050919050565b6114ff848484610c9a565b61151361150a6118fa565b85858585611fbb565b50505050565b60606115248261183b565b505f60065f8481526020019081526020015f208054611542906134b4565b80601f016020809104026020016040519081016040528092919081815260200182805461156e906134b4565b80156115b95780601f10611590576101008083540402835291602001916115b9565b820191905f5260205f20905b81548152906001019060200180831161159c57829003601f168201915b505050505090505f6115c9612167565b90505f8151036115dd57819250505061161f565b5f825111156116115780826040516020016115f9929190613d6f565b6040516020818303038152906040529250505061161f565b61161a8461217d565b925050505b919050565b7f9f2df0fed2c77648de5860a4cc508cd0818c85b8b8a1ab4ceeef8d981c8956a681565b61165182610d99565b61165a81611913565b6116648383611b63565b50505050565b5f600e5f8373ffffffffffffffffffffffffffffffffffffffff1673ffffffffffffffffffffffffffffffffffffffff1681526020019081526020015f20549050919050565b5f60055f8473ffffffffffffffffffffffffffffffffffffffff1673ffffffffffffffffffffffffffffffffffffffff1681526020019081526020015f205f8373ffffffffffffffffffffffffffffffffffffffff1673ffffffffffffffffffffffffffffffffffffffff1681526020019081526020015f205f9054906101000a900460ff16905092915050565b611746611c4d565b5f73ffffffffffffffffffffffffffffffffffffffff168173ffffffffffffffffffffffffffffffffffffffff16036117b6575f6040517f1e4fbdf70000000000000000000000000000000000000000000000000000000081526004016117ad9190612e67565b60405180910390fd5b6117bf81611cd4565b50565b5f7f7965db0b000000000000000000000000000000000000000000000000000000007bffffffffffffffffffffffffffffffffffffffffffffffffffffffff1916827bffffffffffffffffffffffffffffffffffffffffffffffffffffffff191614806118345750611833826121e3565b5b9050919050565b5f8061184683611f82565b90505f73ffffffffffffffffffffffffffffffffffffffff168173ffffffffffffffffffffffffffffffffffffffff16036118b857826040517f7e2732890000000000000000000000000000000000000000000000000000000081526004016118af9190612fe9565b60405180910390fd5b80915050919050565b5f60045f8381526020019081526020015f205f9054906101000a900473ffffffffffffffffffffffffffffffffffffffff169050919050565b5f33905090565b61190e8383836001612243565b505050565b6119248161191f6118fa565b612402565b50565b611940828260405180602001604052805f815250612453565b5050565b8060065f8481526020019081526020015f2090816119629190613d92565b507ff8e1a15aba9398e019f0b49df1a4fde98ee17ae345cb5f6b5e2c27f5033e8ce7826040516119929190612fe9565b60405180910390a15050565b5f806119a984611f82565b90505f73ffffffffffffffffffffffffffffffffffffffff168173ffffffffffffffffffffffffffffffffffffffff16036119f1576119e9858585612476565b915050611a72565b5f73ffffffffffffffffffffffffffffffffffffffff168573ffffffffffffffffffffffffffffffffffffffff1603611a3757611a2f858585612476565b915050611a72565b6040517f08c379a0000000000000000000000000000000000000000000000000000000008152600401611a6990613eab565b60405180910390fd5b9392505050565b5f611a848383611023565b611b5957600160085f8581526020019081526020015f205f015f8473ffffffffffffffffffffffffffffffffffffffff1673ffffffffffffffffffffffffffffffffffffffff1681526020019081526020015f205f6101000a81548160ff021916908315150217905550611af66118fa565b73ffffffffffffffffffffffffffffffffffffffff168273ffffffffffffffffffffffffffffffffffffffff16847f2f8788117e7eff1d82e926ec794901d17c78024a50270940304540a733656f0d60405160405180910390a460019050611b5d565b5f90505b92915050565b5f611b6e8383611023565b15611c43575f60085f8581526020019081526020015f205f015f8473ffffffffffffffffffffffffffffffffffffffff1673ffffffffffffffffffffffffffffffffffffffff1681526020019081526020015f205f6101000a81548160ff021916908315150217905550611be06118fa565b73ffffffffffffffffffffffffffffffffffffffff168273ffffffffffffffffffffffffffffffffffffffff16847ff6391f5c32d9c69d2a47ea670b442974b53935d1edc7fd64eb21e047a839171b60405160405180910390a460019050611c47565b5f90505b92915050565b611c556118fa565b73ffffffffffffffffffffffffffffffffffffffff16611c73610ffb565b73ffffffffffffffffffffffffffffffffffffffff1614611cd257611c966118fa565b6040517f118cdaa7000000000000000000000000000000000000000000000000000000008152600401611cc99190612e67565b60405180910390fd5b565b5f60075f9054906101000a900473ffffffffffffffffffffffffffffffffffffffff1690508160075f6101000a81548173ffffffffffffffffffffffffffffffffffffffff021916908373ffffffffffffffffffffffffffffffffffffffff1602179055508173ffffffffffffffffffffffffffffffffffffffff168173ffffffffffffffffffffffffffffffffffffffff167f8be0079c531659141344cd1fd0a4f28419497f9722a3daafe3b4186f6b6457e060405160405180910390a35050565b5f73ffffffffffffffffffffffffffffffffffffffff168273ffffffffffffffffffffffffffffffffffffffff1603611e0757816040517f5b08ba18000000000000000000000000000000000000000000000000000000008152600401611dfe9190612e67565b60405180910390fd5b8060055f8573ffffffffffffffffffffffffffffffffffffffff1673ffffffffffffffffffffffffffffffffffffffff1681526020019081526020015f205f8473ffffffffffffffffffffffffffffffffffffffff1673ffffffffffffffffffffffffffffffffffffffff1681526020019081526020015f205f6101000a81548160ff0219169083151502179055508173ffffffffffffffffffffffffffffffffffffffff168373ffffffffffffffffffffffffffffffffffffffff167f17307eab39ab6107e8899845ad3d59bd9653f200f220920489ca2b5937696c3183604051611ef39190612d07565b60405180910390a3505050565b5f611f0c5f835f61199e565b90505f73ffffffffffffffffffffffffffffffffffffffff168173ffffffffffffffffffffffffffffffffffffffff1603611f7e57816040517f7e273289000000000000000000000000000000000000000000000000000000008152600401611f759190612fe9565b60405180910390fd5b5050565b5f60025f8381526020019081526020015f205f9054906101000a900473ffffffffffffffffffffffffffffffffffffffff169050919050565b5f8373ffffffffffffffffffffffffffffffffffffffff163b1115612160578273ffffffffffffffffffffffffffffffffffffffff1663150b7a02868685856040518563ffffffff1660e01b81526004016120199493929190613f1b565b6020604051808303815f875af192505050801561205457506040513d601f19601f820116820180604052508101906120519190613f79565b60015b6120d5573d805f8114612082576040519150601f19603f3d011682016040523d82523d5f602084013e612087565b606091505b505f8151036120cd57836040517f64a0ae920000000000000000000000000000000000000000000000000000000081526004016120c49190612e67565b60405180910390fd5b805160208201fd5b63150b7a0260e01b7bffffffffffffffffffffffffffffffffffffffffffffffffffffffff1916817bffffffffffffffffffffffffffffffffffffffffffffffffffffffff19161461215e57836040517f64a0ae920000000000000000000000000000000000000000000000000000000081526004016121559190612e67565b60405180910390fd5b505b5050505050565b606060405180602001604052805f815250905090565b60606121888261183b565b505f612192612167565b90505f8151116121b05760405180602001604052805f8152506121db565b806121ba84612681565b6040516020016121cb929190613d6f565b6040516020818303038152906040525b915050919050565b5f634906490660e01b7bffffffffffffffffffffffffffffffffffffffffffffffffffffffff1916827bffffffffffffffffffffffffffffffffffffffffffffffffffffffff1916148061223c575061223b8261274b565b5b9050919050565b808061227b57505f73ffffffffffffffffffffffffffffffffffffffff168273ffffffffffffffffffffffffffffffffffffffff1614155b156123ad575f61228a8461183b565b90505f73ffffffffffffffffffffffffffffffffffffffff168373ffffffffffffffffffffffffffffffffffffffff16141580156122f457508273ffffffffffffffffffffffffffffffffffffffff168173ffffffffffffffffffffffffffffffffffffffff1614155b8015612307575061230581846116b0565b155b1561234957826040517fa9fbf51f0000000000000000000000000000000000000000000000000000000081526004016123409190612e67565b60405180910390fd5b81156123ab57838573ffffffffffffffffffffffffffffffffffffffff168273ffffffffffffffffffffffffffffffffffffffff167f8c5be1e5ebec7d5bd14f71427d1e84f3dd0314c0f7b2291e5b200ac8c7c3b92560405160405180910390a45b505b8360045f8581526020019081526020015f205f6101000a81548173ffffffffffffffffffffffffffffffffffffffff021916908373ffffffffffffffffffffffffffffffffffffffff16021790555050505050565b61240c8282611023565b61244f5780826040517fe2517d3f000000000000000000000000000000000000000000000000000000008152600401612446929190613fa4565b60405180910390fd5b5050565b61245d838361282c565b6124716124686118fa565b5f858585611fbb565b505050565b5f8061248184611f82565b90505f73ffffffffffffffffffffffffffffffffffffffff168373ffffffffffffffffffffffffffffffffffffffff16146124c2576124c181848661291f565b5b5f73ffffffffffffffffffffffffffffffffffffffff168173ffffffffffffffffffffffffffffffffffffffff161461254d576125015f855f80612243565b600160035f8373ffffffffffffffffffffffffffffffffffffffff1673ffffffffffffffffffffffffffffffffffffffff1681526020019081526020015f205f82825403925050819055505b5f73ffffffffffffffffffffffffffffffffffffffff168573ffffffffffffffffffffffffffffffffffffffff16146125cc57600160035f8773ffffffffffffffffffffffffffffffffffffffff1673ffffffffffffffffffffffffffffffffffffffff1681526020019081526020015f205f82825401925050819055505b8460025f8681526020019081526020015f205f6101000a81548173ffffffffffffffffffffffffffffffffffffffff021916908373ffffffffffffffffffffffffffffffffffffffff160217905550838573ffffffffffffffffffffffffffffffffffffffff168273ffffffffffffffffffffffffffffffffffffffff167fddf252ad1be2c89b69c2b068fc378daa952ba7f163c4a11628f55a4df523b3ef60405160405180910390a4809150509392505050565b60605f600161268f846129e2565b0190505f8167ffffffffffffffff8111156126ad576126ac6132a5565b5b6040519080825280601f01601f1916602001820160405280156126df5781602001600182028036833780820191505090505b5090505f82602083010190505b600115612740578080600190039150507f3031323334353637383961626364656600000000000000000000000000000000600a86061a8153600a858161273557612734613fcb565b5b0494505f85036126ec575b819350505050919050565b5f7f80ac58cd000000000000000000000000000000000000000000000000000000007bffffffffffffffffffffffffffffffffffffffffffffffffffffffff1916827bffffffffffffffffffffffffffffffffffffffffffffffffffffffff1916148061281557507f5b5e139f000000000000000000000000000000000000000000000000000000007bffffffffffffffffffffffffffffffffffffffffffffffffffffffff1916827bffffffffffffffffffffffffffffffffffffffffffffffffffffffff1916145b80612825575061282482612b33565b5b9050919050565b5f73ffffffffffffffffffffffffffffffffffffffff168273ffffffffffffffffffffffffffffffffffffffff160361289c575f6040517f64a0ae920000000000000000000000000000000000000000000000000000000081526004016128939190612e67565b60405180910390fd5b5f6128a883835f61199e565b90505f73ffffffffffffffffffffffffffffffffffffffff168173ffffffffffffffffffffffffffffffffffffffff161461291a575f6040517f73c6ac6e0000000000000000000000000000000000000000000000000000000081526004016129119190612e67565b60405180910390fd5b505050565b61292a838383612b9c565b6129dd575f73ffffffffffffffffffffffffffffffffffffffff168373ffffffffffffffffffffffffffffffffffffffff160361299e57806040517f7e2732890000000000000000000000000000000000000000000000000000000081526004016129959190612fe9565b60405180910390fd5b81816040517f177e802f0000000000000000000000000000000000000000000000000000000081526004016129d4929190613ff8565b60405180910390fd5b505050565b5f805f90507a184f03e93ff9f4daa797ed6e38ed64bf6a1f0100000000000000008310612a3e577a184f03e93ff9f4daa797ed6e38ed64bf6a1f0100000000000000008381612a3457612a33613fcb565b5b0492506040810190505b6d04ee2d6d415b85acef81000000008310612a7b576d04ee2d6d415b85acef81000000008381612a7157612a70613fcb565b5b0492506020810190505b662386f26fc100008310612aaa57662386f26fc100008381612aa057612a9f613fcb565b5b0492506010810190505b6305f5e1008310612ad3576305f5e1008381612ac957612ac8613fcb565b5b0492506008810190505b6127108310612af8576127108381612aee57612aed613fcb565b5b0492506004810190505b60648310612b1b5760648381612b1157612b10613fcb565b5b0492506002810190505b600a8310612b2a576001810190505b80915050919050565b5f7f01ffc9a7000000000000000000000000000000000000000000000000000000007bffffffffffffffffffffffffffffffffffffffffffffffffffffffff1916827bffffffffffffffffffffffffffffffffffffffffffffffffffffffff1916149050919050565b5f8073ffffffffffffffffffffffffffffffffffffffff168373ffffffffffffffffffffffffffffffffffffffff1614158015612c5357508273ffffffffffffffffffffffffffffffffffffffff168473ffffffffffffffffffffffffffffffffffffffff161480612c145750612c1384846116b0565b5b80612c5257508273ffffffffffffffffffffffffffffffffffffffff16612c3a836118c1565b73ffffffffffffffffffffffffffffffffffffffff16145b5b90509392505050565b5f604051905090565b5f80fd5b5f80fd5b5f7fffffffff0000000000000000000000000000000000000000000000000000000082169050919050565b612ca181612c6d565b8114612cab575f80fd5b50565b5f81359050612cbc81612c98565b92915050565b5f60208284031215612cd757612cd6612c65565b5b5f612ce484828501612cae565b91505092915050565b5f8115159050919050565b612d0181612ced565b82525050565b5f602082019050612d1a5f830184612cf8565b92915050565b5f81519050919050565b5f82825260208201905092915050565b5f5b83811015612d57578082015181840152602081019050612d3c565b5f8484015250505050565b5f601f19601f8301169050919050565b5f612d7c82612d20565b612d868185612d2a565b9350612d96818560208601612d3a565b612d9f81612d62565b840191505092915050565b5f6020820190508181035f830152612dc28184612d72565b905092915050565b5f819050919050565b612ddc81612dca565b8114612de6575f80fd5b50565b5f81359050612df781612dd3565b92915050565b5f60208284031215612e1257612e11612c65565b5b5f612e1f84828501612de9565b91505092915050565b5f73ffffffffffffffffffffffffffffffffffffffff82169050919050565b5f612e5182612e28565b9050919050565b612e6181612e47565b82525050565b5f602082019050612e7a5f830184612e58565b92915050565b612e8981612e47565b8114612e93575f80fd5b50565b5f81359050612ea481612e80565b92915050565b5f8060408385031215612ec057612ebf612c65565b5b5f612ecd85828601612e96565b9250506020612ede85828601612de9565b9150509250929050565b5f80fd5b5f80fd5b5f80fd5b5f8083601f840112612f0957612f08612ee8565b5b8235905067ffffffffffffffff811115612f2657612f25612eec565b5b602083019150836001820283011115612f4257612f41612ef0565b5b9250929050565b5f805f805f60608688031215612f6257612f61612c65565b5b5f612f6f88828901612e96565b955050602086013567ffffffffffffffff811115612f9057612f8f612c69565b5b612f9c88828901612ef4565b9450945050604086013567ffffffffffffffff811115612fbf57612fbe612c69565b5b612fcb88828901612ef4565b92509250509295509295909350565b612fe381612dca565b82525050565b5f602082019050612ffc5f830184612fda565b92915050565b5f805f6060848603121561301957613018612c65565b5b5f61302686828701612e96565b935050602061303786828701612e96565b925050604061304886828701612de9565b9150509250925092565b5f819050919050565b61306481613052565b811461306e575f80fd5b50565b5f8135905061307f8161305b565b92915050565b5f6020828403121561309a57613099612c65565b5b5f6130a784828501613071565b91505092915050565b6130b981613052565b82525050565b5f6020820190506130d25f8301846130b0565b92915050565b5f602082840312156130ed576130ec612c65565b5b5f6130fa84828501612e96565b91505092915050565b5f806040838503121561311957613118612c65565b5b5f61312685828601613071565b925050602061313785828601612e96565b9150509250929050565b5f819050919050565b5f61316461315f61315a84612e28565b613141565b612e28565b9050919050565b5f6131758261314a565b9050919050565b5f6131868261316b565b9050919050565b6131968161317c565b82525050565b5f6020820190506131af5f83018461318d565b92915050565b5f6131bf8261316b565b9050919050565b6131cf816131b5565b82525050565b5f6020820190506131e85f8301846131c6565b92915050565b5f806020838503121561320457613203612c65565b5b5f83013567ffffffffffffffff81111561322157613220612c69565b5b61322d85828601612ef4565b92509250509250929050565b61324281612ced565b811461324c575f80fd5b50565b5f8135905061325d81613239565b92915050565b5f806040838503121561327957613278612c65565b5b5f61328685828601612e96565b92505060206132978582860161324f565b9150509250929050565b5f80fd5b7f4e487b71000000000000000000000000000000000000000000000000000000005f52604160045260245ffd5b6132db82612d62565b810181811067ffffffffffffffff821117156132fa576132f96132a5565b5b80604052505050565b5f61330c612c5c565b905061331882826132d2565b919050565b5f67ffffffffffffffff821115613337576133366132a5565b5b61334082612d62565b9050602081019050919050565b828183375f83830152505050565b5f61336d6133688461331d565b613303565b905082815260208101848484011115613389576133886132a1565b5b61339484828561334d565b509392505050565b5f82601f8301126133b0576133af612ee8565b5b81356133c084826020860161335b565b91505092915050565b5f805f80608085870312156133e1576133e0612c65565b5b5f6133ee87828801612e96565b94505060206133ff87828801612e96565b935050604061341087828801612de9565b925050606085013567ffffffffffffffff81111561343157613430612c69565b5b61343d8782880161339c565b91505092959194509250565b5f806040838503121561345f5761345e612c65565b5b5f61346c85828601612e96565b925050602061347d85828601612e96565b9150509250929050565b7f4e487b71000000000000000000000000000000000000000000000000000000005f52602260045260245ffd5b5f60028204905060018216806134cb57607f821691505b6020821081036134de576134dd613487565b5b50919050565b7f496e76616c696420726563697069656e740000000000000000000000000000005f82015250565b5f613518601183612d2a565b9150613523826134e4565b602082019050919050565b5f6020820190508181035f8301526135458161350c565b9050919050565b7f496e76616c696420626f6f6b696e6720636f64650000000000000000000000005f82015250565b5f613580601483612d2a565b915061358b8261354c565b602082019050919050565b5f6020820190508181035f8301526135ad81613574565b9050919050565b7f496e76616c696420746f6b656e205552490000000000000000000000000000005f82015250565b5f6135e8601183612d2a565b91506135f3826135b4565b602082019050919050565b5f6020820190508181035f830152613615816135dc565b9050919050565b5f6136278385612d2a565b935061363483858461334d565b61363d83612d62565b840190509392505050565b5f6020820190508181035f83015261366181848661361c565b90509392505050565b5f815190506136788161305b565b92915050565b5f8151905061368c81612e80565b92915050565b5f67ffffffffffffffff82169050919050565b6136ae81613692565b81146136b8575f80fd5b50565b5f815190506136c9816136a5565b92915050565b600381106136db575f80fd5b50565b5f815190506136ec816136cf565b92915050565b5f805f806080858703121561370a57613709612c65565b5b5f6137178782880161366a565b94505060206137288782880161367e565b9350506040613739878288016136bb565b925050606061374a878288016136de565b91505092959194509250565b7f426f6f6b696e67206f776e6572206d69736d61746368000000000000000000005f82015250565b5f61378a601683612d2a565b915061379582613756565b602082019050919050565b5f6020820190508181035f8301526137b78161377e565b9050919050565b7f426f6f6b696e67206e6f7420666f756e640000000000000000000000000000005f82015250565b5f6137f2601183612d2a565b91506137fd826137be565b602082019050919050565b5f6020820190508181035f83015261381f816137e6565b9050919050565b5f81905092915050565b5f61383b8385613826565b935061384883858461334d565b82840190509392505050565b5f613860828486613830565b91508190509392505050565b7f416c7265616479206d696e74656420666f72207468697320626f6f6b696e67005f82015250565b5f6138a0601f83612d2a565b91506138ab8261386c565b602082019050919050565b5f6020820190508181035f8301526138cd81613894565b9050919050565b7f4e487b71000000000000000000000000000000000000000000000000000000005f52601160045260245ffd5b5f61390b82612dca565b91507fffffffffffffffffffffffffffffffffffffffffffffffffffffffffffffffff820361393d5761393c6138d4565b5b600182019050919050565b5f82905092915050565b5f819050815f5260205f209050919050565b5f6020601f8301049050919050565b5f82821b905092915050565b5f600883026139ae7fffffffffffffffffffffffffffffffffffffffffffffffffffffffffffffffff82613973565b6139b88683613973565b95508019841693508086168417925050509392505050565b5f6139ea6139e56139e084612dca565b613141565b612dca565b9050919050565b5f819050919050565b613a03836139d0565b613a17613a0f826139f1565b84845461397f565b825550505050565b5f90565b613a2b613a1f565b613a368184846139fa565b505050565b5b81811015613a5957613a4e5f82613a23565b600181019050613a3c565b5050565b601f821115613a9e57613a6f81613952565b613a7884613964565b81016020851015613a87578190505b613a9b613a9385613964565b830182613a3b565b50505b505050565b5f82821c905092915050565b5f613abe5f1984600802613aa3565b1980831691505092915050565b5f613ad68383613aaf565b9150826002028217905092915050565b613af08383613948565b67ffffffffffffffff811115613b0957613b086132a5565b5b613b1382546134b4565b613b1e828285613a5d565b5f601f831160018114613b4b575f8415613b39578287013590505b613b438582613acb565b865550613baa565b601f198416613b5986613952565b5f5b82811015613b8057848901358255600182019150602085019450602081019050613b5b565b86831015613b9d5784890135613b99601f891682613aaf565b8355505b6001600288020188555050505b50505050505050565b5f604082019050613bc65f830185612e58565b613bd36020830184612cf8565b9392505050565b5f6040820190508181035f830152613bf381868861361c565b90508181036020830152613c0881848661361c565b905095945050505050565b5f606082019050613c265f830186612e58565b613c336020830185612fda565b613c406040830184612e58565b949350505050565b7f4e6f7420746f6b656e206f776e657200000000000000000000000000000000005f82015250565b5f613c7c600f83612d2a565b9150613c8782613c48565b602082019050919050565b5f6020820190508181035f830152613ca981613c70565b9050919050565b5f613cba82612dca565b91505f8203613ccc57613ccb6138d4565b5b600182039050919050565b7f546f6b656e206e6f7420666f756e6400000000000000000000000000000000005f82015250565b5f613d0b600f83612d2a565b9150613d1682613cd7565b602082019050919050565b5f6020820190508181035f830152613d3881613cff565b9050919050565b5f613d4982612d20565b613d538185613826565b9350613d63818560208601612d3a565b80840191505092915050565b5f613d7a8285613d3f565b9150613d868284613d3f565b91508190509392505050565b613d9b82612d20565b67ffffffffffffffff811115613db457613db36132a5565b5b613dbe82546134b4565b613dc9828285613a5d565b5f60209050601f831160018114613dfa575f8415613de8578287015190505b613df28582613acb565b865550613e59565b601f198416613e0886613952565b5f5b82811015613e2f57848901518255600182019150602085019450602081019050613e0a565b86831015613e4c5784890151613e48601f891682613aaf565b8355505b6001600288020188555050505b505050505050565b7f5469636b65747320617265206e6f6e2d7472616e7366657261626c65000000005f82015250565b5f613e95601c83612d2a565b9150613ea082613e61565b602082019050919050565b5f6020820190508181035f830152613ec281613e89565b9050919050565b5f81519050919050565b5f82825260208201905092915050565b5f613eed82613ec9565b613ef78185613ed3565b9350613f07818560208601612d3a565b613f1081612d62565b840191505092915050565b5f608082019050613f2e5f830187612e58565b613f3b6020830186612e58565b613f486040830185612fda565b8181036060830152613f5a8184613ee3565b905095945050505050565b5f81519050613f7381612c98565b92915050565b5f60208284031215613f8e57613f8d612c65565b5b5f613f9b84828501613f65565b91505092915050565b5f604082019050613fb75f830185612e58565b613fc460208301846130b0565b9392505050565b7f4e487b71000000000000000000000000000000000000000000000000000000005f52601260045260245ffd5b5f60408201905061400b5f830185612e58565b6140186020830184612fda565b939250505056fea2646970667358221220c4e6f36e7bcc42df9aedfd2cc5be7777238f6ee478f9547776bc554c4e4bf24664736f6c63430008180033",
  "linkReferences": {},
  "deployedLinkReferences": {},
  "immutableReferences": {},
  "inputSourceName": "project/contracts/TicketNFT.sol",
  "buildInfoId": "solc-0_8_24-8cb84863806342bff795affafa3ec7325b4264c3"
}