{
  "_format": "hh3-artifact-1",
  "contractName": "BookingRegistry",
  "sourceName": "contracts/BookingRegistry.sol",
  "abi": [
    {
      "inputs": [],
      "stateMutability": "nonpayable",
      "type": "constructor"
    },
    {
      "inputs": [
        {
          "internalType": "address",
          "name": "owner",
          "type": "address"
        }
      ],
      "name": "OwnableInvalidOwner",
      "type": "error"
    },
    {
      "inputs": [
        {
          "internalType": "address",
          "name": "account",
          "type": "address"
        }
      ],
      "name": "OwnableUnauthorizedAccount",
      "type": "error"
    },
    {
      "anonymous": false,
      "inputs": [
        {
          "indexed": false,
          "internalType": "string",
          "name": "bookingCode",
          "type": "string"
        },
        {
          "indexed": true,
          "internalType": "address",
          "name": "owner",
          "type": "address"
        },
        {
          "indexed": false,
          "internalType": "uint64",
          "name": "timestamp",
          "type": "uint64"
        }
      ],
      "name": "BookingCancelled",
      "type": "event"
    },
    {
      "anonymous": false,
      "inputs": [
        {
          "indexed": false,
          "internalType": "string",
          "name": "bookingCode",
          "type": "string"
        },
        {
          "indexed": false,
          "internalType": "bytes32",
          "name": "bookingHash",
          "type": "bytes32"
        },
        {
          "indexed": true,
          "internalType": "address",
          "name": "owner",
          "type": "address"
        },
        {
          "indexed": false,
          "internalType": "uint64",
          "name": "timestamp",
          "type": "uint64"
        }
      ],
      "name": "BookingRecorded",
      "type": "event"
    },
    {
      "anonymous": false,
      "inputs": [
        {
          "indexed": true,
          "internalType": "address",
          "name": "previousOwner",
          "type": "address"
        },
        {
          "indexed": true,
          "internalType": "address",
          "name": "newOwner",
          "type": "address"
        }
      ],
      "name": "OwnershipTransferred",
      "type": "event"
    },
    {
      "inputs": [
        {
          "internalType": "string",
          "name": "bookingCode",
          "type": "string"
        }
      ],
      "name": "cancelBooking",
      "outputs": [],
      "stateMutability": "nonpayable",
      "type": "function"
    },
    {
      "inputs": [
        {
          "internalType": "string",
          "name": "bookingCode",
          "type": "string"
        }
      ],
      "name": "getBooking",
      "outputs": [
        {
          "internalType": "bytes32",
          "name": "bookingHash",
          "type": "bytes32"
        },
        {
          "internalType": "address",
          "name": "owner",
          "type": "address"
        },
        {
          "internalType": "uint64",
          "name": "timestamp",
          "type": "uint64"
        },
        {
          "internalType": "enum BookingRegistry.Status",
          "name": "status",
          "type": "uint8"
        }
      ],
      "stateMutability": "view",
      "type": "function"
    },
    {
      "inputs": [],
      "name": "owner",
      "outputs": [
        {
          "internalType": "address",
          "name": "",
          "type": "address"
        }
      ],
      "stateMutability": "view",
      "type": "function"
    },
    {
      "inputs": [
        {
          "internalType": "string",
          "name": "bookingCode",
          "type": "string"
        },
        {
          "internalType": "bytes32",
          "name": "bookingHash",
          "type": "bytes32"
        }
      ],
      "name": "recordBooking",
      "outputs": [],
      "stateMutability": "nonpayable",
      "type": "function"
    },
    {
      "inputs": [
        {
          "internalType": "string",
          "name": "bookingCode",
          "type": "string"
        },
        {
          "internalType": "bytes32",
          "name": "bookingHash",
          "type": "bytes32"
        },
        {
          "internalType": "address",
          "name": "owner",
          "type": "address"
        }
      ],
      "name": "recordBookingFor",
      "outputs": [],
      "stateMutability": "nonpayable",
      "type": "function"
    },
    {
      "inputs": [],
      "name": "renounceOwnership",
      "outputs": [],
      "stateMutability": "nonpayable",
      "type": "function"
    },
    {
      "inputs": [
        {
          "internalType": "address",
          "name": "newOwner",
          "type": "address"
        }
      ],
      "name": "transferOwnership",
      "outputs": [],
      "stateMutability": "nonpayable",
      "type": "function"
    }
  ],
  "bytecode": "0x608060405234801561000f575f80fd5b50335f73ffffffffffffffffffffffffffffffffffffffff168173ffffffffffffffffffffffffffffffffffffffff1603610081575f6040517f1e4fbdf70000000000000000000000000000000000000000000000000000000081526004016100789190610196565b60405180910390fd5b6100908161009660201b60201c565b506101af565b5f805f9054906101000a900473ffffffffffffffffffffffffffffffffffffffff169050815f806101000a81548173ffffffffffffffffffffffffffffffffffffffff021916908373ffffffffffffffffffffffffffffffffffffffff1602179055508173ffffffffffffffffffffffffffffffffffffffff168173ffffffffffffffffffffffffffffffffffffffff167f8be0079c531659141344cd1fd0a4f28419497f9722a3daafe3b4186f6b6457e060405160405180910390a35050565b5f73ffffffffffffffffffffffffffffffffffffffff82169050919050565b5f61018082610157565b9050919050565b61019081610176565b82525050565b5f6020820190506101a95f830184610187565b92915050565b61116180620001bd5f395ff3fe608060405234801561000f575f80fd5b506004361061007b575f3560e01c80639624493f116100595780639624493f146100c3578063d653b691146100f6578063daec7f2714610112578063f2fde38b1461012e5761007b565b806354e6ead01461007f578063715018a61461009b5780638da5cb5b146100a5575b5f80fd5b61009960048036038101906100949190610b68565b61014a565b005b6100a36103ab565b005b6100ad6103be565b6040516100ba9190610c04565b60405180910390f35b6100dd60048036038101906100d89190610c1d565b6103e5565b6040516100ed9493929190610d0c565b60405180910390f35b610110600480360381019061010b9190610d79565b610471565b005b61012c60048036038101906101279190610c1d565b610749565b005b61014860048036038101906101439190610dea565b6108f9565b005b5f6001848460405161015d929190610e51565b908152602001604051809103902090505f60028111156101805761017f610c99565b5b81600101601c9054906101000a900460ff1660028111156101a4576101a3610c99565b5b146101e4576040517f08c379a00000000000000000000000000000000000000000000000000000000081526004016101db90610ec3565b60405180910390fd5b5f801b8203610228576040517f08c379a000000000000000000000000000000000000000000000000000000000815260040161021f90610f2b565b60405180910390fd5b5f42905060405180608001604052808481526020013373ffffffffffffffffffffffffffffffffffffffff1681526020018267ffffffffffffffff1681526020016001600281111561027d5761027c610c99565b5b81525060018686604051610292929190610e51565b90815260200160405180910390205f820151815f01556020820151816001015f6101000a81548173ffffffffffffffffffffffffffffffffffffffff021916908373ffffffffffffffffffffffffffffffffffffffff16021790555060408201518160010160146101000a81548167ffffffffffffffff021916908367ffffffffffffffff160217905550606082015181600101601c6101000a81548160ff0219169083600281111561034857610347610c99565b5b02179055509050503373ffffffffffffffffffffffffffffffffffffffff167fdabe0ea0d78213e26e8856e07509aa922ce603aec0d33069b82214dec1506d3b8686868560405161039c9493929190610f85565b60405180910390a25050505050565b6103b361097d565b6103bc5f610a04565b565b5f805f9054906101000a900473ffffffffffffffffffffffffffffffffffffffff16905090565b5f805f805f600187876040516103fc929190610e51565b90815260200160405180910390209050805f0154816001015f9054906101000a900473ffffffffffffffffffffffffffffffffffffffff168260010160149054906101000a900467ffffffffffffffff1683600101601c9054906101000a900460ff1694509450945094505092959194509250565b61047961097d565b5f73ffffffffffffffffffffffffffffffffffffffff168173ffffffffffffffffffffffffffffffffffffffff16036104e7576040517f08c379a00000000000000000000000000000000000000000000000000000000081526004016104de9061100d565b60405180910390fd5b5f600185856040516104fa929190610e51565b908152602001604051809103902090505f600281111561051d5761051c610c99565b5b81600101601c9054906101000a900460ff16600281111561054157610540610c99565b5b14610581576040517f08c379a000000000000000000000000000000000000000000000000000000000815260040161057890610ec3565b60405180910390fd5b5f801b83036105c5576040517f08c379a00000000000000000000000000000000000000000000000000000000081526004016105bc90610f2b565b60405180910390fd5b5f42905060405180608001604052808581526020018473ffffffffffffffffffffffffffffffffffffffff1681526020018267ffffffffffffffff1681526020016001600281111561061a57610619610c99565b5b8152506001878760405161062f929190610e51565b90815260200160405180910390205f820151815f01556020820151816001015f6101000a81548173ffffffffffffffffffffffffffffffffffffffff021916908373ffffffffffffffffffffffffffffffffffffffff16021790555060408201518160010160146101000a81548167ffffffffffffffff021916908367ffffffffffffffff160217905550606082015181600101601c6101000a81548160ff021916908360028111156106e5576106e4610c99565b5b02179055509050508273ffffffffffffffffffffffffffffffffffffffff167fdabe0ea0d78213e26e8856e07509aa922ce603aec0d33069b82214dec1506d3b878787856040516107399493929190610f85565b60405180910390a2505050505050565b5f6001838360405161075c929190610e51565b90815260200160405180910390209050600160028111156107805761077f610c99565b5b81600101601c9054906101000a900460ff1660028111156107a4576107a3610c99565b5b146107e4576040517f08c379a00000000000000000000000000000000000000000000000000000000081526004016107db90611075565b60405180910390fd5b3373ffffffffffffffffffffffffffffffffffffffff16816001015f9054906101000a900473ffffffffffffffffffffffffffffffffffffffff1673ffffffffffffffffffffffffffffffffffffffff1614610875576040517f08c379a000000000000000000000000000000000000000000000000000000000815260040161086c906110dd565b60405180910390fd5b600281600101601c6101000a81548160ff0219169083600281111561089d5761089c610c99565b5b02179055503373ffffffffffffffffffffffffffffffffffffffff167ff55c3f5d5e653b91dabbc80e7ca95b588e40f568caa3d36768a9837385477f868484426040516108ec939291906110fb565b60405180910390a2505050565b61090161097d565b5f73ffffffffffffffffffffffffffffffffffffffff168173ffffffffffffffffffffffffffffffffffffffff1603610971575f6040517f1e4fbdf70000000000000000000000000000000000000000000000000000000081526004016109689190610c04565b60405180910390fd5b61097a81610a04565b50565b610985610ac5565b73ffffffffffffffffffffffffffffffffffffffff166109a36103be565b73ffffffffffffffffffffffffffffffffffffffff1614610a02576109c6610ac5565b6040517f118cdaa70000000000000000000000000000000000000000000000000000000081526004016109f99190610c04565b60405180910390fd5b565b5f805f9054906101000a900473ffffffffffffffffffffffffffffffffffffffff169050815f806101000a81548173ffffffffffffffffffffffffffffffffffffffff021916908373ffffffffffffffffffffffffffffffffffffffff1602179055508173ffffffffffffffffffffffffffffffffffffffff168173ffffffffffffffffffffffffffffffffffffffff167f8be0079c531659141344cd1fd0a4f28419497f9722a3daafe3b4186f6b6457e060405160405180910390a35050565b5f33905090565b5f80fd5b5f80fd5b5f80fd5b5f80fd5b5f80fd5b5f8083601f840112610af557610af4610ad4565b5b8235905067ffffffffffffffff811115610b1257610b11610ad8565b5b602083019150836001820283011115610b2e57610b2d610adc565b5b9250929050565b5f819050919050565b610b4781610b35565b8114610b51575f80fd5b50565b5f81359050610b6281610b3e565b92915050565b5f805f60408486031215610b7f57610b7e610acc565b5b5f84013567ffffffffffffffff811115610b9c57610b9b610ad0565b5b610ba886828701610ae0565b93509350506020610bbb86828701610b54565b9150509250925092565b5f73ffffffffffffffffffffffffffffffffffffffff82169050919050565b5f610bee82610bc5565b9050919050565b610bfe81610be4565b82525050565b5f602082019050610c175f830184610bf5565b92915050565b5f8060208385031215610c3357610c32610acc565b5b5f83013567ffffffffffffffff811115610c5057610c4f610ad0565b5b610c5c85828601610ae0565b92509250509250929050565b610c7181610b35565b82525050565b5f67ffffffffffffffff82169050919050565b610c9381610c77565b82525050565b7f4e487b71000000000000000000000000000000000000000000000000000000005f52602160045260245ffd5b60038110610cd757610cd6610c99565b5b50565b5f819050610ce782610cc6565b919050565b5f610cf682610cda565b9050919050565b610d0681610cec565b82525050565b5f608082019050610d1f5f830187610c68565b610d2c6020830186610bf5565b610d396040830185610c8a565b610d466060830184610cfd565b95945050505050565b610d5881610be4565b8114610d62575f80fd5b50565b5f81359050610d7381610d4f565b92915050565b5f805f8060608587031215610d9157610d90610acc565b5b5f85013567ffffffffffffffff811115610dae57610dad610ad0565b5b610dba87828801610ae0565b94509450506020610dcd87828801610b54565b9250506040610dde87828801610d65565b91505092959194509250565b5f60208284031215610dff57610dfe610acc565b5b5f610e0c84828501610d65565b91505092915050565b5f81905092915050565b828183375f83830152505050565b5f610e388385610e15565b9350610e45838584610e1f565b82840190509392505050565b5f610e5d828486610e2d565b91508190509392505050565b5f82825260208201905092915050565b7f426f6f6b696e67206578697374730000000000000000000000000000000000005f82015250565b5f610ead600e83610e69565b9150610eb882610e79565b602082019050919050565b5f6020820190508181035f830152610eda81610ea1565b9050919050565b7f496e76616c6964206861736800000000000000000000000000000000000000005f82015250565b5f610f15600c83610e69565b9150610f2082610ee1565b602082019050919050565b5f6020820190508181035f830152610f4281610f09565b9050919050565b5f601f19601f8301169050919050565b5f610f648385610e69565b9350610f71838584610e1f565b610f7a83610f49565b840190509392505050565b5f6060820190508181035f830152610f9e818688610f59565b9050610fad6020830185610c68565b610fba6040830184610c8a565b95945050505050565b7f496e76616c6964206f776e6572000000000000000000000000000000000000005f82015250565b5f610ff7600d83610e69565b915061100282610fc3565b602082019050919050565b5f6020820190508181035f83015261102481610feb565b9050919050565b7f4e6f742063616e63656c6c61626c6500000000000000000000000000000000005f82015250565b5f61105f600f83610e69565b915061106a8261102b565b602082019050919050565b5f6020820190508181035f83015261108c81611053565b9050919050565b7f4e6f74206f776e657200000000000000000000000000000000000000000000005f82015250565b5f6110c7600983610e69565b91506110d282611093565b602082019050919050565b5f6020820190508181035f8301526110f4816110bb565b9050919050565b5f6040820190508181035f830152611114818587610f59565b90506111236020830184610c8a565b94935050505056fea26469706673582212203a7c5f2f7ecfc8f6a51b8259945cc5fd6975a706768bec8d775f713f0d31c23b64736f6c63430008180033",
  "linkReferences": {},
  "deployedLinkReferences": {},
  "immutableReferences": {},
  "inputSourceName": "project/contracts/BookingRegistry.sol",
  "buildInfoId": "solc-0_8_24-1497afc9ac1ec38f484e85ff7d961a56106534f2"
}